:100000000C944F010C9480010C9480010C9480019D
:100010000C9480010C9480010C9480010C9480015C
:100020000C9480010C94A60B0C94A60B0C94A60BBC
:100030000C9480010C945D0A0C9480010C94800156
:100040000C9480010C9480010C9480010C9480012C
:100050000C9480010C9480010C9480010C945C0B36
:100060000C9480010C94260B0C94FC0A0C948001D7
:100070000C9480010C9480010C9480010C948001FC
:100080000C9480010C9480010C9480010C948001EC
:100090000C9480010C9480010C9480010C948001DC
:1000A0000C9480010C9480010C9480010C948001CC
:1000B0000C9480010C9480010C9480010C948001BC
:1000C0000C9480010C9480010C9480010C948001AC
:1000D0000C9480010C9480010C9480010C9480019C
:1000E0000C9480010C948C030C94220C0C94C60389
:1000F0000C94CB030C9486030C94A1030C94C103C1
:100100000C9498030C9470020C9434020C943406F2
:100110000C9490060C94A8060C94F8030C946208B6
:100120000C94BD030C94C7030C9474120C94170325
:100130000C94CA020C9484020C9433060C94690447
:100140000C94C9060C9494030C9490030C946102D3
:100150000C9492020C94CA060C941B060C94A503F2
:100160000C949B030C94B9030C94AB030C94B30351
:100170000C94AF030C9429040000210024002700F4
:100180002A002D00300033000101000004010701A6
:100190000A0100000A0B02090C0D0E0807030401F6
:1001A000000000000000000000000000000000004F
:1001B000000000000000000000000000000012111C
:1001C000100000000000000000000000000000001F
:1001D00000000000000000000200002000230026B4
:1001E0000029002C002F003200000100000301064E
:1001F00001090100002200250028002B002E0031FB
:1002000000340002010000050108010B010505058D
:1002100005070508080808020202020A0A0808047D
:1002200004040401010101010101010303030303AB
:10023000030303040707070C0C0C0C0C0C0C0C023A
:1002400002020206060606060606060B0B0B0B0B41
:100250000B0B0B010210202008081020401020403A
:10026000800201020108040201010204081020407A
:100270008080402010080402018004020180402098
:1002800010080402010804020101020408102040C1
:1002900080010204081020408000220C74121124F6
:1002A0001FBECFEFD1E2DEBFCDBF00E00CBF24E028
:1002B000AAE9B2E001C01D92AD35B207E1F712E044
:1002C000A0E0B2E0E2E4FAE200E00BBF02C0079077
:1002D0000D92AA39B107D9F711E0CEE4D1E000E0E0
:1002E00006C021970109802FFE010E94DD12CD3446
:1002F000D10780E00807A9F70E944D0D0C940F1557
:100300000C94000096E0899FD0011124AE52BC4F9E
:1003100090967C936E935F9791E091969C939197C2
:10032000E0913F04F091400490913E04992339F00C
:10033000309751F0811108C08091EE0319943097E5
:1003400019F05C968C91FACF0895CF92DF92EF92DC
:10035000FF920F931F9396E0899FF0011124EE52B4
:10036000FC4F11A2278D30A12130310551F178F0D9
:100370002230310509F451C02330310509F452C04F
:100380001F910F91FF90EF90DF90CF90089566231B
:10039000B9F361E070E00E9482012FB7F894809178
:1003A0000C0390910D03A0910E03B0910F032FBF8A
:1003B00080932A0490932B04A0932C04B0932D04D3
:1003C000DFCF9FB7F894C0900C03D0900D03E0905E
:1003D0000E03F0900F039FBF00912A0410912B048D
:1003E00020912C0430912D04C01AD10AE20AF30A9C
:1003F00000913C0410913D0430E020E00C151D05F7
:100400002E053F0550F462E070E01F910F91FF90C0
:10041000EF90DF90CF900C9482016111B1CF63E037
:1004200070E0F3CF70E060E0F0CFFC012481358113
:100430006217730748F480819181009729F0860F35
:10044000971FFC018081089580E00895DB011496D8
:100450004D915C9115976D917C91DC01ED91FC9132
:100460000280F381E02D1994AF92BF92CF92DF9278
:10047000EF92FF920F931F93CF93DF936C017B0159
:100480008B01040F151FEB015E01AE18BF08C017EA
:10049000D10759F06991D601ED91FC910190F0815D
:1004A000E02DC6011995892B79F7C501DF91CF9110
:1004B0001F910F91FF90EF90DF90CF90BF90AF9082
:1004C0000895FC01538D448D252F30E0842F90E05A
:1004D000821B930B541710F0CF960895019708953F
:1004E000FC01918D828D981761F0A28DAE0FBF2F08
:1004F000B11D5D968C91928D9F5F9F73928F90E05E
:1005000008958FEF9FEF0895FC01918D828D9817CC
:1005100031F0828DE80FF11D858D90E008958FEF09
:100520009FEF0895FC01918D228D892F90E0805CD2
:100530009F4F821B91098F739927089580E193E063
:100540000E94920221E0892B09F420E0822F089575
:10055000FC01A48DA80FB92FB11DA35ABF4F2C9138
:10056000848D90E001968F739927848FA689B7892F
:100570002C93A089B1898C91837080648C93938D26
:10058000848D981306C00288F389E02D80818F7DC9
:1005900080830895EF92FF920F931F93CF93DF9381
:1005A000EC0181E0888F9B8D8C8D98131AC0E889AF
:1005B000F989808185FF15C09FB7F894EE89FF897E
:1005C0006083E889F98980818370806480839FBF1C
:1005D00081E090E0DF91CF911F910F91FF90EF901C
:1005E0000895F62E0B8D10E00F5F1F4F0F7311272C
:1005F000E02E8C8D8E110CC00FB607FCFACFE88967
:10060000F989808185FFF5CFCE010E94A802F1CF44
:10061000EB8DEC0FFD2FF11DE35AFF4FF0829FB7DA
:10062000F8940B8FEA89FB8980818062CFCFCF93CA
:10063000DF93EC01888D8823B9F0AA89BB89E8890A
:10064000F9898C9185FD03C0808186FD0DC00FB6B0
:1006500007FCF7CF8C9185FFF2CF808185FFEDCF2E
:10066000CE010E94A802E9CFDF91CF91089580E0EA
:1006700090E0892B29F00E949E0281110E940000C7
:1006800080E090E0892B49F080E090E0892B29F010
:100690000E94000081110E94000080E090E0892B00
:1006A00049F080E090E0892B29F00E940000811140
:1006B0000E94000080E090E0892B49F080E090E00B
:1006C000892B29F00E94000081110C9400000895EC
:1006D0008150823108F05AC0E82FF0E08827EC58AA
:1006E000FC4F8F4F0C94DD129403980386038C0308
:1006F0009003C6039B03A103A503AB03AF03B3039E
:10070000B903BD03C603C103C703CB0380918000B7
:100710008F77809380000895809180008F7DF9CF3E
:1007200080918000877FF5CF84B58F7784BD089551
:1007300084B58F7DFBCF8091B0008F778093B00020
:1007400008958091B0008F7DF9CF809190008F77D0
:10075000809390000895809190008F7DF9CF8091D3
:100760009000877FF5CF8091A0008F778093A000C5
:1007700008958091A0008F7DF9CF8091A000877FA0
:10078000F5CF809120018F7780932001089580918B
:1007900020018F7DF9CF80912001877FF5CFCF9306
:1007A000DF93282F30E0F901EE56FE4F8491F901D6
:1007B000ED5AFD4FD491F901E35FFD4FC491CC2375
:1007C000A1F081110E946803EC2FF0E0EE0FFF1FF3
:1007D000E752FE4FA591B491EC91ED2381E090E0BA
:1007E00009F480E0DF91CF91089580E090E0FACFA6
:1007F000862F0C94CF031F93CF93DF93282F30E0E5
:10080000F901EE56FE4F8491F901ED5AFD4FD49156
:10081000F901E35FFD4FC491CC23A9F0162F81119C
:100820000E946803EC2FF0E0EE0FFF1FED50FE4F2B
:10083000A591B4918FB7F894EC91111108C0D0959F
:10084000DE23DC938FBFDF91CF911F910895DE2BC4
:10085000F8CF862F642F0C94FB03CF93DF9390E0A7
:10086000FC01ED5AFD4F2491835F9D4FFC01849163
:100870008823C9F090E0880F991FFC01E858FE4FCB
:10088000A591B491FC01ED50FE4FC591D491611139
:100890000DC09FB7F8948C91209582238C9388810A
:1008A000282328839FBFDF91CF910895623051F4B0
:1008B0009FB7F8943C91822F809583238C93E88195
:1008C0002E2BEFCF8FB7F894EC912E2B2C938FBF5C
:1008D000EACF862F642F0C942D046F927F928F9213
:1008E0009F92AF92BF92CF92DF92EF92FF920F93BF
:1008F0001F93CF93DF9381E080933E048FB7F894EA
:1009000040910C0350910D0360910E0370910F0301
:100910008FBF80912E0490912F04A0913004B0914C
:100920003104481B590B6A0B7B0B80913A04909160
:100930003B04B0E0A0E084179507A607B70708F0CE
:100940001DC1C0E080913804C81760F4E091340400
:10095000F0913504EC0FF11D62E080810E942D04BE
:10096000CF5FF0CF712C812C912C54018394809116
:100970003904781608F05FC0072D10E0E0913604C6
:10098000F0913704E00FF11F61E080810E942D0497
:10099000E0913604F0913704E00FF11F60E08081B0
:1009A0000E94FB03D501C401072C04C0880F991FC6
:1009B000AA1FBB1F0A94D2F76C017C01E094F0944B
:1009C000612C809138046816F8F4C62DD0E0E091CF
:1009D0003404F0913504EC0FFD1F80810E94CF0399
:1009E0002496CC0FDD1FCE52DC4F892B41F4888139
:1009F00099818C299D29998388836394E2CF88818A
:100A000099818E219F21F7CFE0913604F091370430
:100A1000E00FF11F61E080810E94FB0380913604AA
:100A200090913704080F191F60E0F80180810E943F
:100A30002D0473949CCFC2EDD3E0FE018FEF9FEFA6
:100A4000278D30A1232B21F4148E968F858F11A230
:100A5000369624E0EE30F20799F7F12C96E0D92E85
:100A600080913804F81608F050C0E12C0F2D10E0EA
:100A7000000F111F06521C4F20913904E21608F096
:100A800042C0F801608171810E2C02C07695679595
:100A90000A94E2F7F29E900111242E0D311DE2ED31
:100AA000F3E080E0458D568D2417350709F46AC0C0
:100AB0008F5F36968A30B1F760FF23C0E2EDF3E036
:100AC00090E080E0448D411117C0E0913204F09134
:100AD0003304E20FF31F4081D89EF001D99EF00D40
:100AE0001124EE52FC4F448F368F258F10A2178EA3
:100AF00061E00E94A50105C0019636968A309105F5
:100B000009F7E394B9CFF394ABCF80E099A19111A9
:100B1000892F2696F4E0CE30DF07C1F79FB7F8940F
:100B200040910C0350910D0360910E0370910F03DF
:100B30009FBF40932E0450932F0460933004709312
:100B400031048823D9F08091F3038823B9F0809190
:100B5000F1039091F203019789F48091EE03DF9104
:100B6000CF911F910F91FF90EF90DF90CF90BF90AA
:100B7000AF909F908F907F906F90089510923E0459
:100B800080E0EDCF6170B5CF3FB7F8948091DC0283
:100B90009091DD02A091DE02B091DF0226B5A89B04
:100BA00005C02F3F19F00196A11DB11D3FBFBA2FFF
:100BB000A92F982F8827BC01CD01620F711D811DBF
:100BC000911D42E0660F771F881F991F4A95D1F744
:100BD00008958F929F92AF92BF92CF92DF92EF9241
:100BE000FF924B015C010E94C4056B017C010E94D5
:100BF000C4056C197D098E099F09683E7340810503
:100C00009105A8F321E0821A9108A108B10888EEA5
:100C1000C80E83E0D81EE11CF11C81149104A104CC
:100C2000B10429F7FF90EF90DF90CF90BF90AF9085
:100C30009F908F9008952091E2023091E30228174F
:100C4000390771F49091E0028091E102981741F028
:100C5000E091E002F0E0E556FD4F808190E00895DC
:100C60008FEF9FEF08950895EF92FF920F931F93D8
:100C7000CF93DF93DC015C96ED90FC905D97E114DF
:100C8000F10479F481E090E013969C938E9312978F
:100C900090E080E0DF91CF911F910F91FF90EF9056
:100CA00008955196ED91FC91529750968C915097E2
:100CB000982F90950FB75E962C915E97122F127019
:100CC00021FD6095F8942081112319F1282B2083B0
:100CD000E7012197F1F728E0462F50E0308160FFCF
:100CE0001AC0382B3083E7012197F1F7BA017595C7
:100CF0006795215089F7112381F0808189238083B2
:100D00000FBF5C968D919C910197F1F781E090E087
:100D1000C1CF2923DCCF3923E5CF9081892BEFCFB9
:100D20002091E2023091E3022817390771F4809193
:100D3000E1022091E00290E0805C9F4F821B9109CC
:100D400060E470E00E94C912089590E080E0089588
:100D50002091E2023091E30228173907B9F490910B
:100D6000E0028091E102981789F0E091E002F0E062
:100D7000E556FD4F80812091E00230E02F5F3F4F2C
:100D80002F7333272093E00290E008958FEF9FEFB9
:100D90000895089590E080E0089520919A02A1E0DE
:100DA000B2E04AE052E0FD0180E09081318193138E
:100DB00007C03281931304C0903211F0292F81E0D3
:100DC0009D9112963C911297931309C015963C91F0
:100DD0001597931304C0903211F0292F81E03396B8
:100DE0004E175F0711F720939A0290910502209108
:100DF0000102291309C020910902921305C0903203
:100E000019F090939A0281E020910302921309C095
:100E100020910702921305C0903219F090939A0224
:100E200081E00895CF93DF93EC0160E08E810E9412
:100E3000FB0361E08E810E94FB0360E08E810E94D3
:100E4000FB038BE891E00197F1F7DF91CF910895D3
:100E5000CF92DF92EF92FF920F931F93CF93DF9386
:100E60006C017C0187E0E80EF11CD0E0C0E0062FA9
:100E700010E0B8010C2E02C0759567950A94E2F750
:100E80006170F70181917F010E94FB032196C430BC
:100E9000D10579F7C601DF91CF911F910F91FF9096
:100EA000EF90DF90CF900C941207CF92DF92EF92E9
:100EB000FF920F931F93CF93DF93EC01F62E642FD5
:100EC0008C810E94FB038D818F3F19F060E00E94AE
:100ED000FB030F2D10E08F8584FF25C06E0187E096
:100EE000C80ED11CF12CE12CB8010E2C02C0759556
:100EF00067950A94E2F76170F60181916F010E9493
:100F0000FB03FFEFEF1AFF0A88E0E816F10461F730
:100F1000CE01DF91CF911F910F91FF90EF90DF9065
:100F2000CF900C941207B80184E0759567958A9567
:100F3000E1F7CE010E9428076F2DCE01DF91CF91FE
:100F40001F910F91FF90EF90DF90CF900C942807A6
:100F500040E0682F81E494E00C945507CF93DF9331
:100F6000813029F0909150049860909350048093C0
:100F700054041092550480E48093560480E18093D9
:100F8000570480E58093580461E0809145040E94F5
:100F90002D04809146048F3F19F061E00E942D04DA
:100FA00061E0809147040E942D04C1E4D4E09E01D9
:100FB000215434408091500484FD0BC084E090E0C3
:100FC00021962817390744F461E08E810E942D0490
:100FD000EECF88E090E0F4CF8BE39DE00197F1F74E
:100FE00060E0809145040E94FB0360E0809147042B
:100FF0000E94FB03809146048F3F19F060E00E943D
:10100000FB038091500484FD39C063E081E494E0E7
:101010000E942807CBE4D6E4CE010197F1F763E004
:1010200081E494E00E9428072197F1F763E081E4CE
:1010300094E00E94280783E592E00197F1F762E0CF
:1010400081E494E00E9428078091500480620E940D
:10105000A80784E0809351048CE00E94A80781E0F7
:101060000E94A8078BE39FE10197F1F782E080934C
:10107000520486E0DF91CF910C94A80780620E9411
:10108000A8078BE496E40197F1F780915004806201
:101090000E94A80783E592E00197F1F78091500440
:1010A00080620E94A807D0CF90915404891710F055
:1010B0008FEF890FE82FF0E0EF5BFB4F84898068AA
:1010C0000C94A80741E00E94550781E090E0089544
:1010D00042E050E06FE572E080E193E00C9434026E
:1010E000CF93DF93FC0101900020E9F73197AF0126
:1010F000481B590BBC0180E193E00E943402EC01D3
:101100000E9468088C0F9D1FDF91CF910895CF93A7
:10111000DF93EC0188819981009711F00E9495136B
:10112000198218821D821C821B821A82DF91CF9144
:101130000895FC0180819181009711F00C94951322
:1011400008950F931F93CF93DF93EC0188819981CA
:10115000009759F02A813B812617370730F081E04C
:10116000DF91CF911F910F9108958B016F5F7F4F9A
:101170000E941E14009759F0998388831B830A8369
:101180002C813D81232B59F7FC011082E8CF80E0B0
:10119000E7CFEF92FF920F931F93CF93DF936115E9
:1011A000710541F480E0DF91CF911F910F91FF9085
:1011B000EF90089541155105B1F07B01EC010C81D0
:1011C0001D81040F151FB8010E94A108882351F347
:1011D000288139818C819D81B701820F931F0E94E4
:1011E00008151D830C8381E0DECF41E050E062E60C
:1011F00072E00C94C908CF93DF93EC01FB014481AA
:101200005581608171810E94C908811103C0CE019E
:101210000E948708CE01DF91CF910895CF93DF938D
:101220001F921F92CDB7DEB769831A8241E050E06A
:10123000BE016F5F7F4F0E94C9080F900F90DF9132
:10124000CF910895FB0144815581608171810C9497
:10125000C908EF92FF920F931F93CF93DF93EC0196
:101260007B018A01BA010E94A10881110BC0CE0145
:101270000E948708CE01DF91CF911F910F91FF90BF
:10128000EF9008951D830C83B701888199810E9496
:101290000815F0CFFB0101900020E9F73197AF016D
:1012A000461B570B0C9429090F931F93CF93DF9381
:1012B000CDB7DEB762970FB6F894DEBF0FBECDBFD5
:1012C0008C01CB01F80111821082138212821582E7
:1012D00014824AE0BE016F5F7F4F0E949412BE01EC
:1012E0006F5F7F4FC8010E944A0962960FB6F8945B
:1012F000DEBF0FBECDBFDF91CF911F910F9108953B
:10130000CF93DF931F921F92CDB7DEB7FC011182FE
:101310001082138212821582148269831A82BE019E
:101320006F5F7F4F0E944A090F900F90DF91CF911E
:101330000895FC0111821082138212821582148298
:10134000FB0101900020E9F73197AF01461B570BD5
:101350000C9429090F931F93CF93DF93CDB7DEB77A
:101360006E970FB6F894DEBF0FBECDBF62E672E097
:10137000CE010D960E94990962E672E0CE01439675
:101380000E94990962E672E0CE0149960E9499098D
:1013900001E012E0F80161918F01CE010D960E94EB
:1013A0000E09CE010D960E94F508F8016281CE016A
:1013B00043960E940E09CE0143960E94F508F8015B
:1013C0006581CE0149960E940E09CE0149960E9480
:1013D000F508F2E004301F07E9F681E00E94A80753
:1013E0008BE39FE10197F1F780E00E945408BE0172
:1013F000635F7F4F81E494E00E94260281E00E94B7
:101400005408BE016D5E7F4F81E494E00E94260285
:1014100082E00E945408BE01675E7F4F81E494E041
:101420000E94260283E00E9454080E94CD06882371
:10143000E9F160919A02CE0107960E94800964E664
:1014400072E0CE0101960E949909BE01695F7F4F4B
:10145000CE0101960E94FB08BC0181E494E00E9449
:101460002602CE0101960E949908CE0107960E949D
:10147000990864E670E080E090E00E94E905CE0102
:1014800049960E949908CE0143960E949908CE0180
:101490000D960E9499086E960FB6F894DEBF0FBEA7
:1014A000CDBFDF91CF911F910F9108956DEA73E049
:1014B00081E494E00E942602DCCF1F920F920FB6C7
:1014C0000F9211240BB60F922F933F934F935F937C
:1014D0006F937F938F939F93AF93BF93EF93FF93FC
:1014E0008091F8029091F902A091FA02B091FB026A
:1014F000892B8A2B8B2BE1F19091E702E091E80296
:10150000F091E9028081892780838091F80290918F
:10151000F902A091FA02B091FB02181619061A06F8
:101520001B069CF48091F8029091F902A091FA02B6
:10153000B091FB020197A109B1098093F802909341
:10154000F902A093FA02B093FB02FF91EF91BF91D1
:10155000AF919F918F917F916F915F914F913F914B
:101560002F910F900BBE0F900FBE0F901F901895EC
:1015700080910002E8EDF1E0E4919FEF909300028A
:10158000E230E9F040F4EE2389F0E13091F060E0E0
:101590000E94FB03DACFE43049F110F1E530B9F7EE
:1015A000909173009D7F90937300F1CF10926E0025
:1015B000EECF90916F009D7F90936F00E8CF909158
:1015C00070009D7F9093700091E09093B000909197
:1015D000B100987F94609093B1001092B300D7CF80
:1015E000909171009D7F90937100D1CF9091720086
:1015F0009D7F90937200CBCF1F920F920FB60F92E8
:1016000011240BB60F922F933F934F935F936F93D9
:101610007F938F939F93AF93BF93EF93FF9380E15B
:1016200093E00E94A802FF91EF91BF91AF919F912B
:101630008F917F916F915F914F913F912F910F907B
:101640000BBE0F900FBE0F901F9018951F920F9218
:101650000FB60F9211240BB60F922F938F939F9377
:10166000EF93FF93E0912003F09121038081E091BB
:101670002603F091270382FD1DC0908180912903EC
:101680008F5F8F7320912A03821741F0E091290325
:10169000F0E0E05FFC4F958F80932903FF91EF917D
:1016A0009F918F912F910F900BBE0F900FBE0F90B7
:1016B0001F9018958081F2CF1F920F920FB60F9254
:1016C00011242F933F938F939F93AF93BF93809158
:1016D0000C0390910D03A0910E03B0910F03309174
:1016E000DB0223E0230F2D3758F50196A11DB11D14
:1016F0002093DB0280930C0390930D03A0930E03C1
:10170000B0930F038091DC029091DD02A091DE0284
:10171000B091DF020196A11DB11D8093DC02909370
:10172000DD02A093DE02B093DF02BF91AF919F91E3
:101730008F913F912F910F900FBE0F901F90189592
:1017400026E8230F0296A11DB11DD2CF1F920F9242
:101750000FB60F9211240BB60F922F933F934F9316
:101760005F936F937F938F939F93AF93BF93EF9309
:10177000FF93E091E202F091E302309749F0A685F1
:10178000B7858585968D91FF16C09C918923B1F40C
:10179000FF91EF91BF91AF919F918F917F916F9149
:1017A0005F914F913F912F910F900BBE0F900FBE05
:1017B0000F901F9018959C91892351F7A389B489A4
:1017C0009C918589809589238C9386899789019737
:1017D000F1F7608D718DA685B785558538E020E0DD
:1017E000CB010197F1F7822F90E095958795282FEF
:1017F0004C91452309F02068315091F7868D81FD89
:1018000020958091E10290E001968F7399273091A5
:10181000E002381799F0A091E102B0E0A556BD4F63
:101820002C938093E102828D938D0197F1F7A38928
:10183000B4898C919589892B8C93AACF868D8160F0
:10184000868FF1CF109213031092120388EE93E06B
:10185000A0E0B0E08093140390931503A0931603C7
:10186000B093170389E292E09093110380931003E1
:1018700085EC90E090931D0380931C0384EC90E032
:1018800090931F0380931E0380EC90E090932103BC
:101890008093200381EC90E09093230380932203B4
:1018A00082EC90E0909325038093240386EC90E0F3
:1018B00090932703809326031092290310922A0302
:1018C00010922B0310922C031092440410924304A4
:1018D00087E592E0909342048093410487E08093EF
:1018E00045048FEF8093460486E08093470482E0AE
:1018F0008093480483E08093490484E080934A0401
:1019000085E080934B0410924C0410924D04109289
:101910004E0410924F041092500481E00E94AE07D2
:101920001092D4031092D8031092D7031092D903C7
:101930008DE492E09093D3038093D203EEEEF3E034
:101940001082148213821582369684E0EA32F807F8
:10195000B9F78FE092E090933504809334048CE0E3
:1019600092E0909337048093360484E080933804A7
:1019700083E08093390483E192E090933304809371
:1019800032048AE090E090933B0480933A0484EF21
:1019900091E090933D0480933C0410924004109297
:1019A0003F0410922E0410922F04109230041092D3
:1019B000310410923E041092B6031092B50388EEE3
:1019C00093E0A0E0B0E08093B7039093B803A093B6
:1019D000B903B093BA038BE392E09093B40380937E
:1019E000B3031092CA031092C9031092CC03109251
:1019F000CB031092CE031092CD031092D00310921D
:101A0000CF036091D1036E7F6D7F6093D1036695A4
:101A1000617081E068278BE00E94FB0361E08BE04E
:101A20000E942D04EEE5F2E0E491E093C303E8E1C7
:101A3000F2E0E491F0E0EE0FFF1FED50FE4F8591D4
:101A400094919093C5038093C40360E08AE00E9460
:101A50002D048091D10381FD04C061E08AE00E94E1
:101A6000FB038AE08093BF03EDE5F2E0E491E093AD
:101A7000C003E7E1F2E0E491F0E0EE0FFF1FE75270
:101A8000FE4F859194919093C2038093C10361E6C8
:101A900072E08DEA93E00C949909CF93DF93CDB770
:101AA000DEB762970FB6F894DEBF0FBECDBF789455
:101AB00084B5826084BD84B5816084BD85B5826053
:101AC00085BD85B5816085BD80916E008160809304
:101AD0006E0010928100809181008260809381006D
:101AE000809181008160809381008091800081607D
:101AF000809380008091B10084608093B1008091D8
:101B0000B00081608093B0008091910082608093EA
:101B1000910080919100816080939100809190006C
:101B20008160809390008091A10082608093A100E9
:101B30008091A10081608093A1008091A0008160CC
:101B40008093A00080912101826080932101809187
:101B50002101816080932101809120018160809327
:101B6000200180917A00846080937A0080917A00CD
:101B7000826080937A0080917A00816080937A00FD
:101B800080917A00806880937A001092C10084E08E
:101B90000E94AE070E94AA0961E088E00E942D041D
:101BA00061E088E00E94FB03E0912003F0912103B3
:101BB00082E08083E0911C03F0911D031082E0918C
:101BC0001E03F0911F038FEC808310922803E09195
:101BD0002403F091250386E08083E0912203F091B5
:101BE0002303808180618083E0912203F0912303AD
:101BF000808188608083E0912203F09123038081BB
:101C000080688083E0912203F091230380818F7D9F
:101C100080831092CE031092CD031092CC031092C9
:101C2000CB031092CA031092C9038DE991E09093FF
:101C3000D0038093CF038091BF0396EF980F943029
:101C400048F02EEC280F243028F022EC280F283002
:101C500008F061C02DEB30E03093CA032093C90334
:101C60002BE931E03093CC032093CB032CE231E01D
:101C70003093CE032093CD03943050F02EEC280FF8
:101C8000243030F022EC280FF0E0E0E0283010F4AF
:101C9000E8E6F0E02081943028F032EC380F38305C
:101CA00008F4DCC131E0232B943048F09EEC980F0F
:101CB000943028F08E53F0E0E0E0883010F4E8E64D
:101CC000F0E020832091BF0336EF320F343008F468
:101CD000C7C18EEC820F843008F4C2C182EC820F3F
:101CE000883008F4C0C190E080E09093C7038093EF
:101CF000C603343008F0BAC12650330B81E001C06E
:101D0000880F2A95EAF78093C8038091CF039091BA
:101D1000D0030197F1F78091CD039091CE03892BE9
:101D200049F1E091E202F091E30283E0E33BF8073E
:101D300009F1309739F0A389B4899C918589809500
:101D400089238C938091D1038E7F8093D10310924D
:101D5000E1021092E00283EB93E09093E302809320
:101D6000E202E091C603F091C70380819091C8031D
:101D7000892B808364E772E08DEA93E00E944A0930
:101D8000CC24CA94DC2C760111EE612E14E0712E65
:101D900005E7202E02E0302E00910A0310910B037C
:101DA0000115110509F023C180910A0290910B02DF
:101DB000892B09F09BC061E672E0CE0107960E9474
:101DC0009909ABE0AA2EB12C83EB93E00E94900618
:101DD000892BA1F083EB93E00E94A806682FCE0127
:101DE00001960E948009BE016F5F7F4FCE0107966A
:101DF0000E942209CE0101960E94990891E0A91A39
:101E0000B10811F78FE792E00E947008BE01695F88
:101E10007F4F80E193E00E9426020E94680888E8D4
:101E200092E00E94700870E060E0CE0107960E9488
:101E30001502813309F056C01A8219821C821B8256
:101E40001E821D826F8178856115710531F04B8589
:101E50005C85CE0101960E94290970E060E0CE0108
:101E600001960E941502082E000C990BC0979093C2
:101E70000B0280930A0261E070E0CE0101960E949D
:101E80001502082E000C990BC097909305038093C0
:101E90000403E1E04E2EE2E05E2EF2E08F2E912C64
:101EA000B12CA12CB4016A0D7B1DCE0101960E94BC
:101EB0001502F201EA0DFB1D8083EFEFAE1ABE0A98
:101EC000F3E0AF16B10471F783E0880E911C93E044
:101ED000490E511CEBE08E16910411F7CE010196CC
:101EE0000E949908CE0107960E9499080E946D04ED
:101EF000882309F47CC020910A0230910B02213022
:101F0000310509F074C090ED980F933008F0C8C007
:101F1000082E000C990BC097909309038093080337
:101F20000E946D04682F8823D9F380ED860F8330DB
:101F300008F05DC0062E000C770B6053710970939A
:101F4000070360930603CE0101960E945409609135
:101F5000080370910903CE0107960E9454096AE8AC
:101F600072E0CE010D960E949909BE01695F7F4F14
:101F7000CE010D960E94FB088C0144E050E06EE813
:101F800072E00E94C908811103C0C8010E9487083D
:101F9000BE016F5F7F4FC8010E94FB088C0141E0CA
:101FA00050E06DE772E00E94C908811103C0C801CA
:101FB0000E948708F3E00D3A1F0769F0F80160817D
:101FC00071816115710509F466C0448155818DEAFE
:101FD00093E00E942909CE010D960E949908CE0136
:101FE00007960E949908CE0101960E9499080E94C6
:101FF000AA090E94CD06882309F456C281E090E028
:1020000090930B0380930A0380910002823209F0BF
:10201000EAC0E8EDF1E0149117FD40C261E082E210
:102020000E942D04112309F4B5C1123009F0C6C174
:102030008091B10087608093B1008DE48093B300FC
:10204000C092F802D092F902E092FA02F092FB02FA
:102050008091700082608093700020C234E023CEB3
:102060008BE690E042CE8DE690E03FCE88E02233D2
:1020700009F449CE84E0233309F445CE82E02433C9
:1020800009F441CE82EC820F883018F42E53330BC2
:1020900035CE81E038CE8DEA93E00E9487089BCF51
:1020A0008A3209F09CC04091080350910903809145
:1020B000060390910703FA01EE0FFF1FE40FF51FCF
:1020C000EF5FFD4FE80FF91F8081803209F080C07B
:1020D00088E5808310920B0210920A023093050368
:1020E0002093040361E672E0CE0107960E949909ED
:1020F00070E060E0CE0101960E945409BE016F5F5E
:102100007F4FCE0107960E942209CE0101960E94C0
:1021100099086091040370910503CE0101960E9415
:102120005409BE016F5F7F4FCE0107960E942209BE
:10213000CE0101960E94990861E0A62E62E0B62EBB
:10214000912C812CF501E80DF91D6081CE010196DD
:102150000E948009BE016F5F7F4FCE0107960E94EB
:102160002209CE0101960E9499089FEF891A990AC7
:10217000E3E08E16910431F7F3E0AF0EB11C8AE074
:1021800092E08A159B05E1F683E992E00E947008CF
:10219000BE01695F7F4F80E193E00E9426020E94AA
:1021A000680888E892E00E947008B801CE0107969E
:1021B0000E941502682F83EB93E00E9434060F5FA4
:1021C0001F4F0B30110589F7CE0107960E94990821
:1021D00064E772E08DEA93E00E944A0908CF8332F7
:1021E00009F005CFF5CF8F3F09F058C182E2809307
:1021F0000002E8EDF1E01491812F1F3F09F44EC178
:10220000123009F468C060F4112379F1113009F437
:1022100044C087FD43C161E082E20E942D0405CFE6
:10222000143009F499C008F478C0153091F7109271
:102230002001109221018091210188608093210169
:1022400080912101816080932101EFE2F2E084918D
:10225000E82FF0E0EE0FFF1FED50FE4F85919491B7
:10226000F10184918093E402D9CE14BC15BC84B5ED
:10227000826084BD85B5816085BDEFE2F2E0849126
:10228000E82FF0E0EE0FFF1FED50FE4F8591949187
:10229000F10184918093EB02C1CE109280001092E4
:1022A000810080918100886080938100809181000D
:1022B000816080938100EFE2F2E08491E82FF0E00A
:1022C000EE0FFF1FED50FE4F85919491F101849127
:1022D0008093EA02A3CE1092B0001092B1008091D8
:1022E000B00082608093B0008091B10081608093E3
:1022F000B100EFE2F2E08491E82FF0E0EE0FFF1F73
:10230000ED50FE4F859194919093E9028093E802FD
:10231000F10184918093E70281CE10929000109297
:10232000910080919100886080939100809191004C
:10233000816080939100EFE2F2E08491E82FF0E079
:10234000EE0FFF1FED50FE4F85919491F1018491A6
:102350008093E60213E062CE1092A0001092A100DA
:102360008091A10088608093A1008091A10081608C
:102370008093A100EFE2F2E08491E82FF0E0EE0F0D
:10238000FF1FED50FE4F85919491F1018491809350
:10239000E50244CE85B5887F856085BD8DE487BD27
:1023A000C0920003D0920103E0920203F092030373
:1023B00080916E00826080936E0070C01130C1F415
:1023C00080918100887F8360809381007092890072
:1023D00060928800C092FC02D092FD02E092FE0260
:1023E000F092FF0280916F00826080936F0056C070
:1023F0001330C1F480919100887F836080939100B5
:102400007092990060929800C092F402D092F50206
:10241000E092F602F092F702809171008260809360
:1024200071003CC01430C1F48091A100887F8360AA
:102430008093A1007092A9006092A800C092F0025F
:10244000D092F102E092F202F092F30280917200D7
:1024500082608093720022C01530C1F48091210106
:10246000887F836080932101709229016092280106
:10247000C092EC02D092ED02E092EE02F092EF02F6
:102480008091730082608093730008C0123051F114
:10249000FCF4112329F1113009F498CF68EC70E0B5
:1024A00080E090E00E94E90580910A0390910B037F
:1024B000892B39F480910A0290910B0261E0019717
:1024C00009F060E088E00E94FB030E94370364CCBF
:1024D000143009F4AFCF0CF493CF1530F9F6C4CF14
:1024E00081EE5DCF81EEAACD8DEA93E00E9499083E
:1024F0008BE392E09093B4038093B3038091E20264
:102500009091E302835B934071F4E091C603F091F4
:10251000C70390818091C80380958923808310929E
:10252000E3021092E2020895BB274A3031F4992366
:1025300022F4BDE2909581959F4F0C94A012BB2789
:10254000FB015527AA27880F991FAA1FA41710F06F
:10255000A41B83955051B9F7A05DAA3308F0A95D7B
:10256000A193009779F7B111B1931192CB010C941B
:10257000B912DC01FC01672F71917723E1F73297E3
:1025800004C07C916D9370836291AE17BF07C8F34E
:10259000089597FB072E16F4009407D077FD09D015
:1025A0000E94E51207FC05D03EF4909581959F4F5F
:1025B0000895709561957F4F0895EE0FFF1F881F56
:1025C0008BBF0790F691E02D1994AA1BBB1B51E11C
:1025D00007C0AA1FBB1FA617B70710F0A61BB70B93
:1025E000881F991F5A95A9F780959095BC01CD0138
:1025F00008950F931F93CF93DF938230910510F4CA
:1026000082E090E0E0915B04F0915C0430E020E037
:10261000B0E0A0E0309799F42115310509F44AC0E3
:10262000281B390B24303105D8F58A819B8161152F
:10263000710589F1FB0193838283FE0111C0408102
:1026400051810281138148175907E0F04817590753
:1026500099F4109761F012960C93129713961C93AD
:102660003296CF01DF91CF911F910F910895009382
:102670005B0410935C04F4CF2115310551F042172F
:10268000530738F0A901DB019A01BD01DF01F80110
:10269000C1CFEF01F9CF90935C0480935B04CDCF61
:1026A000FE01E20FF31F8193919322503109398388
:1026B0002883D7CF2091590430915A04232B41F419
:1026C000209121023091220230935A042093590420
:1026D00020911F02309120022115310541F42DB7C0
:1026E0003EB74091230250912402241B350BE09108
:1026F0005904F0915A04E217F307A0F42E1B3F0B84
:102700002817390778F0AC014E5F5F4F2417350763
:1027100048F04E0F5F1F50935A0440935904819321
:1027200091939FCFF0E0E0E09CCFCF93DF930097B1
:10273000E9F0FC01329713821282A0915B04B09100
:102740005C04ED0130E020E01097A1F4208131819C
:10275000820F931F2091590430915A04281739078A
:1027600009F061C0F0935A04E0935904DF91CF91CE
:102770000895EA01CE17DF07E8F54A815B819E01E3
:1027800041155105B1F7E901FB83EA83499159915C
:10279000C40FD51FEC17FD0761F48081918102966B
:1027A000840F951FE90199838883828193819B839C
:1027B0008A83F0E0E0E012968D919C911397009748
:1027C000B9F52D913C911197CD010296820F931F7F
:1027D0002091590430915A042817390739F6309757
:1027E00051F510925C0410925B04B0935A04A093CC
:1027F0005904BCCFD383C28340815181840F951F7C
:10280000C817D90761F44E5F5F4F88819981480FDF
:10281000591F518340838A819B8193838283211531
:10282000310509F0B0CFF0935C04E0935B049ECFD8
:10283000FD01DC01C0CF13821282D7CF4F925F928D
:102840006F927F928F929F92AF92BF92CF92DF92C0
:10285000EF92FF920F931F93CF93DF938C0100971A
:1028600099F4CB01DF91CF911F910F91FF90EF90E1
:10287000DF90CF90BF90AF909F908F907F906F90A0
:102880005F904F900C94F912FC01E60FF71F9C012A
:1028900022503109E217F30708F4AEC0D901CD91F7
:1028A000DC911197C617D70720F1C530D10578F014
:1028B000CE0104978617970750F0C61BD70B2297B7
:1028C000C193D1936D937C93CF010E949513C8015E
:1028D000DF91CF911F910F91FF90EF90DF90CF90FC
:1028E000BF90AF909F908F907F906F905F904F9030
:1028F00008955B01AC1ABD0A4C018C0E9D1EA0917F
:102900005B04B0915C04512C412CF12CE12C10970C
:1029100031F58091590490915A048815990509F070
:102920005CC04616570608F058C080911F0290916F
:102930002002009741F48DB79EB740912302509139
:102940002402841B950BE817F90708F055C0F09393
:102950005A04E0935904F90171836083B8CF8D91D3
:102960009C91119712966C90129713967C901397E6
:10297000A815B90559F56C0142E0C40ED11CCA1462
:10298000DB0420F1AC014A195B09DA0112961597B4
:1029900080F06282738251834083D9016D937C936E
:1029A000E114F10471F0D7011396FC93EE931297A2
:1029B0008ECF22968C0F9D1FF90191838083F301A6
:1029C000EFCFF0935C04E0935B0481CF4816590687
:1029D00008F42C017D01D3019ACFCB010E94F9129A
:1029E0007C01009749F0AE01B8010E94FF14C801B4
:1029F0000E94951387016BCF10E000E068CFFB01C8
:102A0000DC0102C001900D9241505040D8F708956A
:102A1000FB01DC0101900D920020E1F7089511E027
:102A2000CEE4D1E000E006C0802FFE010E94DD125E
:102A30002196011DCF34D10780E00807A9F7F8944B
:022A4000FFCFC6
:102A4200FF20202020202020202001001817161906
:102A52001A1B1C3132333435363738392A302300C9
:102A6200005D04800000000000CA02340261021707
:102A7200039202700284020000000034063402CA8B
:102A82000633069006A8061B06000000006904290A
:102A920004F8030000000062083402CA06C9060DE9
:102AA2000A007C00456E64202D3E2057696E6E65DB
:102AB200723A200028783A2D202C793A2D2900727A
:102AC2006563656976653A002F0028783A00202C04
:0A2AD200793A0073656E643A000063
:00000001FF
